:020000040000FA
:100000000208D27F2012005B7F4712005B7F231221
:10001000005B7F0812005B7F2412005B7F101200E0
:100020005B7F221200567F301200567F321200563C
:100030007F3312005BE4FF02005B85A7101200A073
:100040001200A91200AD12007812008212006C1288
:10005000008C8510A72212005BE4FFC2938FA3E5FA
:10006000F830E7FB53F87FD293AFA32275A930E5B0
:10007000A95480648070F82275E34075E10875E248
:10008000402243B280E5B2544060FA224384405398
:10009000B0F343B0092275A14075F80143A41322BF
:1000A000E4F5A753D9BFF5D92275A4052275A50D8E
:0200B00022220A
:1008000012003A120096120003E4F508F509F50A01
:10081000F50BF50CF50DF50E7FA712005B8F0FE5BC
:100820000F5408640870E27FA912005B750A007F0C
:10083000A912005BEF7D00FC7FA812005BECF508BD
:10084000EFF5097FAB12005BEFFC7FAA12005BECB7
:10085000F50BEFF50C7FAD12005BEFFC7FAC1200E7
:090860005BECF50DEFF50E80A034
:0F08D2001200B1787FE4F6D8FD7581100208009E
:00000001FF
